:100000000C942A000C9447000C9447000C9497021F
:100010000C9447000C9447000C9447000C94470044
:100020000C9447000C9447000C9447000C94470034
:100030000C9447000C943E020C9447000C9447002B
:100040000C947D010C9447000C9447000C944700DD
:100050000C94470011241FBECFE5D8E0DEBFCDBF12
:1000600012E0A0E6B0E0E4EEFCE002C005900D92E4
:10007000A234B107D9F722E0A2E4B2E001C01D9298
:10008000A934B207E1F70E94D2020C9470060C94D6
:10009000000085BB82E08A95F1F700C088B38062DA
:1000A00088BB88B38F7388BB82E08A95F1F700C064
:1000B00088B38F7188BB82E08A95F1F700C00895FC
:1000C000CF93C82F807F0E94490082E08A95F1F784
:1000D00000C08C2F8295807F0E94490082E08A9523
:1000E000F1F700C0CF91089582E00E9460008FEC8C
:1000F00097E00197F1F700C0000088E20E946000DD
:100100008FEC97E00197F1F700C000008CE00E94AF
:1001100060008FEC97E00197F1F700C0000086E0E7
:100120000E9460008FEC97E00197F1F700C000009B
:1001300080E80E9460008FEC97E00197F1F700C023
:100140000000089585BB88B3806A88BB88B38F7B25
:1001500088BB8FEC97E00197F1F700C0000088B3EF
:10016000806888BB88B38F7988BB8FEC97E0019754
:10017000F1F700C000000895CF93C82F807F0E9440
:10018000A2008FEC97E00197F1F700C000008C2FE0
:100190008295807F0E94A2008FEC97E00197F1F793
:1001A00000C00000CF9108950F931F93CF93DF936A
:1001B0008C01C0E0D0E009C00E94BC002196C03193
:1001C000D10519F480EC0E946000F801EC0FFD1FCE
:1001D00080818111F1CFDF91CF911F910F9108950F
:1001E0000F931F93CF93DF938C01EB01219701971E
:1001F00021F48C2F80580E9460000230110521F4F8
:100200008C2F80540E946000DF91CF911F910F913D
:10021000089581E00E946000089587EF84BB83EF1A
:1002200087BB8FEF81BB08950E9474002FEF80E79A
:1002300092E0215080409040E1F700C000000E9411
:1002400009012FEF80E792E0215080409040E1F7D4
:1002500000C000000895CF93DF93EA0170E090E0C2
:100260000E94F000CE010E94D400DF91CF9108954A
:1002700087B3877F87BB08952FEF89E698E12150E8
:1002800080409040E1F700C000000E94140140E768
:1002900050E061E081E00E942B014CE750E061E01A
:1002A00082E00E942B0126C00E94140140E850E029
:1002B00061E081E00E942B014CE850E061E082E0C7
:1002C0000E942B0188B3806188BB2FEF82E597E005
:1002D000215080409040E1F700C0000088B38F7E3D
:1002E00088BB2FEF82E597E0215080409040E1F7F6
:1002F00000C00000B399D8CF08951F920F920FB697
:100300000F9211248F939F9384B195B190934502DE
:100310008093440286B1806486B99F918F910F903B
:100320000FBE0F901F9018958AB38E7F8ABB8FE8FF
:1003300086B9789480EC87B986B1806486B90895CF
:100340000E9414014CE950E061E081E00E942B0121
:10035000809145028F93809144028F938BEA90E0C5
:100360009F938F9380E690E09F938F930E948603E4
:1003700040E650E061E082E00E942B012FEF84E331
:100380009CE0215080409040E1F700C000000F90B9
:100390000F900F900F900F900F9008952FEF89E618
:1003A00098E1215080409040E1F700C000000E9499
:1003B00014014BEB50E061E081E00E942B0148EC1E
:1003C00050E061E082E00E942B01089588ED90E00A
:1003D0000E94570389E091E00E9457038AE391E06D
:1003E0000E94570387E591E00E94570384E791E05C
:1003F0000E94570381E991E00E94570388ED90E045
:100400000E945703089592B321E030E002C0220F0A
:10041000331F8A95E2F7292722BB8EEA91E00E94DA
:100420005703849B05C08EED91E00E94570304C0E2
:100430008AEE91E00E945703859B05C087EF91E00B
:100440000E94570304C083E092E00E945703869BFA
:1004500005C080E192E00E94570304C08CE192E065
:100460000E945703879B05C089E292E00E945703D0
:10047000089585E392E00E94570308951F920F921A
:100480000FB60F9211242F933F934F935F936F9367
:100490007F938F939F93AF93BF93EF93FF9384B317
:1004A000876084BB0E944F0380934302823371F0C4
:1004B00018F4813331F018C0833369F0843381F04C
:1004C00013C084E090E00E9403020EC085E090E03B
:1004D0000E94030209C086E090E00E94030204C06B
:1004E00087E090E00E940302FF91EF91BF91AF91EE
:1004F0009F918F917F916F915F914F913F912F913C
:100500000F900FBE0F901F901895813039F018F0A2
:10051000823039F009C00E94CE0108950E943C014A
:1005200008950E94A00108950E94CE0108951F928F
:100530000F920FB60F9211242F933F934F935F9317
:100540006F937F938F939F93AF93BF93EF93FF939B
:10055000809142028F5F80934202833028F0109294
:10056000420280E00E948502FF91EF91BF91AF911E
:100570009F918F917F916F915F914F913F912F91BB
:100580000F900FBE0F901F90189587B38B7F87BB7E
:1005900088B3846088BB84B78F7B84BF80E28BBFC5
:1005A000789408950E940D010E9414010E94380160
:1005B0000E9494010E94C50260E875E280E090E02C
:1005C0000E94470360E875E280E090E00E94F80234
:1005D0000E94E6012FEF84E39CE021508040904090
:1005E000E1F700C00000809142020E948502F2CF34
:1005F000CF92DF92EF92FF920F931F938B019C019A
:100600000056194021093109013A184B21403105A2
:1006100098F500E010E09801061B170B280B390B2A
:10062000000F111F221F331F000F111F221F331F26
:1006300068017901CC0CDD1CEE1CFF1C22E1D20EFE
:100640002AE7E21EF11CDC01CB01880F991FAA1FCB
:10065000BB1F880F991FAA1FBB1F9C01AD01220F52
:10066000331F441F551F220F331F441F551FC7013F
:10067000B6010E94640302C023E330E029B930BD13
:100680001F910F91FF90EF90DF90CF90089528E990
:100690002AB926E820BD1BB80E94F80208955F9B86
:1006A000FECF8CB108955D9BFECF8CB90895CF939A
:1006B000DF93EC0103C021960E94530388818111CE
:1006C000FACFDF91CF910895A1E21A2EAA1BBB1B8E
:1006D000FD010DC0AA1FBB1FEE1FFF1FA217B3070E
:1006E000E407F50720F0A21BB30BE40BF50B661F24
:1006F000771F881F991F1A9469F7609570958095E8
:1007000090959B01AC01BD01CF010895AEE0B0E032
:10071000ECE8F3E00C9447060D891E8986E08C8393
:100720001A8309838FEF9FE79E838D83AE01475E17
:100730005F4F6F89788DCE0101960E94A803EF81EB
:10074000F885E00FF11F10822E96E4E00C9463060A
:10075000ABE0B0E0EEEAF3E00C9439066C017B010B
:100760008A01FC0117821682838181FFCCC1CE01F0
:1007700001963C01F6019381F70193FD859193FF6A
:1007800081917F01882309F4BAC1853239F493FD40
:10079000859193FF81917F01853229F4B60190E024
:1007A0000E949F05E7CF912C212C312CFFE1F315FE
:1007B000D8F08B3279F038F4803279F08332A1F4BA
:1007C000232D20611DC08D3261F0803369F4232D0B
:1007D000216016C0832D8260382EE32DE4603E2E0A
:1007E0002AC0F32DF8601DC037FC2DC020ED280F66
:1007F0002A3040F08E32B9F436FC81C1232D2064BA
:10080000322E19C036FE06C08AE0989E200D1124B3
:10081000922E11C0EAE02E9E200D1124222EF32DDF
:10082000F0623F2E08C08C3621F4832D8068382E6C
:1008300002C0883641F4F70193FD859193FF8191C1
:100840007F018111B3CF982F9F7D9554933028F469
:100850000C5F1F4F9FE399830DC0833631F08337C0
:1008600071F0833509F059C021C0F8018081898376
:100870000E5F1F4F88248394912C530113C02801CD
:10088000F2E04F0E511CF801A080B18036FE03C08B
:10089000692D70E002C06FEF7FEFC5010E949405E3
:1008A0004C018201F32DFF773F2E16C0280122E074
:1008B000420E511CF801A080B18036FE03C0692DA4
:1008C00070E002C06FEF7FEFC5010E9489054C0107
:1008D000F32DF0683F2E820133FC1BC0822D90E087
:1008E00088169906B0F4B60180E290E00E949F0558
:1008F0002A94F4CFF50137FC859137FE81915F0191
:10090000B60190E00E949F0521102A9421E0821AEE
:1009100091088114910471F7E8C0843611F089368A
:1009200041F5F80137FE07C06081718182819381B2
:100930000C5F1F4F08C060817181072E000C880B6F
:10094000990B0E5F1F4FF32DFF763F2E97FF09C0C7
:1009500090958095709561957F4F8F4F9F4FF06870
:100960003F2E2AE030E0A3010E94DB05882E861886
:1009700045C0853731F4232D2F7EB22E2AE030E09A
:1009800025C0932D997FB92E8F36C1F018F4883584
:1009900079F0B5C0803719F0883721F0B0C0E92F61
:1009A000E061BE2EB4FE0DC0FB2DF460BF2E09C069
:1009B00034FE0AC0292F2660B22E06C028E030E09F
:1009C00005C020E130E002C020E132E0F801B7FECE
:1009D00007C060817181828193810C5F1F4F06C0C7
:1009E0006081718180E090E00E5F1F4FA3010E9443
:1009F000DB05882E8618FB2DFF773F2E36FE0DC0B7
:100A0000232D2E7FA22E891458F434FE0BC032FC05
:100A100009C0832D8E7EA82E05C0B82CA32C03C040
:100A2000B82C01C0B92CA4FE0FC0FE01E80DF11DC9
:100A30008081803321F49A2D997EA92E09C0A2FECF
:100A400006C0B394B39404C08A2D867809F0B39499
:100A5000A3FC11C0A0FE06C0B21488F4280C922C8E
:100A60009B180EC0B21460F4B60180E290E00E94C0
:100A70009F05B394F7CFB21418F42B1802C0982C2A
:100A8000212CA4FE10C0B60180E390E00E949F05D7
:100A9000A2FE17C0A1FC03C088E790E002C088E571
:100AA00090E0B6010CC08A2D867859F0A1FE02C0F4
:100AB0008BE201C080E2A7FC8DE2B60190E00E94CB
:100AC0009F05891438F4B60180E390E00E949F05E9
:100AD0009A94F7CF8A94F301E80DF11D8081B60155
:100AE00090E00E949F058110F5CF222009F442CEAC
:100AF000B60180E290E00E949F052A94F6CFF601AD
:100B00008681978102C08FEF9FEF2B96E2E10C94D4
:100B10005506FC010590615070400110D8F7809592
:100B200090958E0F9F1F0895FC01615070400190B9
:100B30000110D8F7809590958E0F9F1F08950F9301
:100B40001F93CF93DF93FB01238121FD03C08FEF20
:100B50009FEF2CC022FF16C046815781248135812A
:100B60004217530744F4A081B1819D012F5F3F4F8D
:100B7000318320838C93268137812F5F3F4F3783CA
:100B8000268314C08B01EC01FB010084F185E02D6C
:100B90000995892BE1F6D80116968D919C911797AE
:100BA000019617969C938E931697CE01DF91CF9165
:100BB0001F910F910895FA01AA27283051F1203191
:100BC00081F1E8946F936E7F6E5F7F4F8F4F9F4FE1
:100BD000AF4FB1E03ED0B4E03CD0670F781F891F23
:100BE0009A1FA11D680F791F8A1F911DA11D6A0FF1
:100BF000711D811D911DA11D20D009F468943F91A4
:100C00002AE0269F11243019305D3193DEF6CF01A2
:100C10000895462F4770405D4193B3E00FD0C9F768
:100C2000F6CF462F4F70405D4A3318F0495D31FDD5
:100C30004052419302D0A9F7EACFB4E0A695979528
:100C4000879577956795BA95C9F7009761057105FE
:100C500008959B01AC010A2E069457954795379548
:100C60002795BA95C9F7620F731F841F951FA01DA2
:100C700008952F923F924F925F926F927F928F9240
:100C80009F92AF92BF92CF92DF92EF92FF920F931B
:100C90001F93CF93DF93CDB7DEB7CA1BDB0B0FB625
:100CA000F894DEBF0FBECDBF09942A8839884888E2
:100CB0005F846E847D848C849B84AA84B984C88478
:100CC000DF80EE80FD800C811B81AA81B981CE0F6F
:100CD000D11D0FB6F894DEBF0FBECDBFED01089554
:040CE000F894FFCFB6
:100CE4004144432056616C75653A30303030200001
:100CF400504952205354415455533A004F464600EC
:100D0400202020205741524E494E47004D4F544910
:100D14004F4E20444554454354454400536F696C39
:100D2400204D6F69737465723A2000414443207604
:100D3400616C75653A253034642000477265656ED0
:100D440020486F7573652000436F6E74726F6C205A
:100D540053797374656D20002D2D2D2D2D2D2D2D82
:100D64002D2D2D2D2D2D2D2D2D2D2D2D2D2D2D2DAF
:100D74002D2D2D2D2D2D2D2D2D2D2D2D2D2D2D2D9F
:100D84002D2D2D2D2D2D2D0D002D2D2D2D2D2D2DDC
:100D94002D2D2D2D2D2D2D2D2D2D2D4C4544204328
:100DA4004F4E54524F6C2D2D2D2D2D2D2D2D2D2D7F
:100DB4002D2D2D2D2D2D2D2D0D00456E746572209C
:100DC40027312720746F20746F67676C65204C454A
:100DD4004420312E200D00456E7465722027322781
:100DE40020746F20746F67676C65204C4544203213
:100DF4002E200D00456E7465722027332720746FF2
:100E040020746F67676C65204C454420332E200D99
:100E140000456E7465722027342720746F20746F28
:100E240067676C65204C454420342E200D000D2D41
:100E34002D2D2D2D2D2D2D2D2D2D2D2D2D2D2D2DDE
:100E44002D2D2D2D2D2D2D2D2D2D2D2D2D2D2D2DCE
:100E54002D2D2D2D2D2D2D2D2D2D2D2D0D004C65B4
:100E64006420313A204F4E200D004C656420313A05
:100E7400204F4646200D004C656420323A204F4EE8
:100E8400200D004C656420323A204F4646200D0068
:100E94004C656420333A204F4E200D004C6564208D
:100EA400333A204F4646200D004C656420343A20E6
:100EB4004F4E200D004C656420343A204F464620A6
:020EC4000D001F
:00000001FF
